{
  "contractName": "PKI",
  "abi": [
    {
      "constant": true,
      "inputs": [
        {
          "name": "",
          "type": "uint256"
        }
      ],
      "name": "signings",
      "outputs": [
        {
          "name": "owner",
          "type": "address"
        },
        {
          "name": "certId",
          "type": "uint256"
        },
        {
          "name": "expiry",
          "type": "uint256"
        },
        {
          "name": "sign",
          "type": "string"
        }
      ],
      "payable": false,
      "stateMutability": "view",
      "type": "function"
    },
    {
      "constant": true,
      "inputs": [
        {
          "name": "",
          "type": "uint256"
        }
      ],
      "name": "crl",
      "outputs": [
        {
          "name": "",
          "type": "bool"
        }
      ],
      "payable": false,
      "stateMutability": "view",
      "type": "function"
    },
    {
      "constant": true,
      "inputs": [
        {
          "name": "",
          "type": "uint256"
        }
      ],
      "name": "registry",
      "outputs": [
        {
          "name": "data",
          "type": "string"
        },
        {
          "name": "hash",
          "type": "string"
        }
      ],
      "payable": false,
      "stateMutability": "view",
      "type": "function"
    },
    {
      "constant": true,
      "inputs": [],
      "name": "owner",
      "outputs": [
        {
          "name": "",
          "type": "address"
        }
      ],
      "payable": false,
      "stateMutability": "view",
      "type": "function"
    },
    {
      "inputs": [],
      "payable": false,
      "stateMutability": "nonpayable",
      "type": "constructor"
    },
    {
      "constant": false,
      "inputs": [
        {
          "name": "data",
          "type": "string"
        },
        {
          "name": "hash",
          "type": "string"
        }
      ],
      "name": "append",
      "outputs": [
        {
          "name": "certId",
          "type": "uint256"
        }
      ],
      "payable": false,
      "stateMutability": "nonpayable",
      "type": "function"
    },
    {
      "constant": false,
      "inputs": [
        {
          "name": "certId",
          "type": "uint256"
        },
        {
          "name": "_sign",
          "type": "string"
        },
        {
          "name": "expiry",
          "type": "uint256"
        }
      ],
      "name": "sign",
      "outputs": [
        {
          "name": "signId",
          "type": "uint256"
        }
      ],
      "payable": false,
      "stateMutability": "nonpayable",
      "type": "function"
    },
    {
      "constant": false,
      "inputs": [
        {
          "name": "signId",
          "type": "uint256"
        }
      ],
      "name": "revoke",
      "outputs": [],
      "payable": false,
      "stateMutability": "nonpayable",
      "type": "function"
    },
    {
      "constant": true,
      "inputs": [
        {
          "name": "signId",
          "type": "uint256"
        }
      ],
      "name": "isSignatureValid",
      "outputs": [
        {
          "name": "state",
          "type": "bool"
        }
      ],
      "payable": false,
      "stateMutability": "view",
      "type": "function"
    }
  ],
  "bytecode": "0x60806040526000600455600060055534801561001a57600080fd5b50336000806101000a81548173ffffffffffffffffffffffffffffffffffffffff021916908373ffffffffffffffffffffffffffffffffffffffff160217905550610be48061006a6000396000f3fe608060405234801561001057600080fd5b50600436106100885760003560e01c80635893253c1161005b5780635893253c1461022f578063591c515f1461034257806359469563146104a85780638da5cb5b1461058b57610088565b80631acf70f11461008d57806320c5429b1461017557806328891c5e146101a35780632c2c1132146101e9575b600080fd5b6100b9600480360360208110156100a357600080fd5b81019080803590602001909291905050506105d5565b604051808573ffffffffffffffffffffffffffffffffffffffff1673ffffffffffffffffffffffffffffffffffffffff16815260200184815260200183815260200180602001828103825283818151815260200191508051906020019080838360005b8381101561013757808201518184015260208101905061011c565b50505050905090810190601f1680156101645780820380516001836020036101000a031916815260200191505b509550505050505060405180910390f35b6101a16004803603602081101561018b57600080fd5b81019080803590602001909291905050506106bd565b005b6101cf600480360360208110156101b957600080fd5b8101908080359060200190929190505050610745565b604051808215151515815260200191505060405180910390f35b610215600480360360208110156101ff57600080fd5b8101908080359060200190929190505050610792565b604051808215151515815260200191505060405180910390f35b61025b6004803603602081101561024557600080fd5b81019080803590602001909291905050506107b2565b604051808060200180602001838103835285818151815260200191508051906020019080838360005b8381101561029f578082015181840152602081019050610284565b50505050905090810190601f1680156102cc5780820380516001836020036101000a031916815260200191505b50838103825284818151815260200191508051906020019080838360005b838110156103055780820151818401526020810190506102ea565b50505050905090810190601f1680156103325780820380516001836020036101000a031916815260200191505b5094505050505060405180910390f35b6104926004803603604081101561035857600080fd5b810190808035906020019064010000000081111561037557600080fd5b82018360208201111561038757600080fd5b803590602001918460018302840111640100000000831117156103a957600080fd5b91908080601f016020809104026020016040519081016040528093929190818152602001838380828437600081840152601f19601f8201169050808301925050505050505091929192908035906020019064010000000081111561040c57600080fd5b82018360208201111561041e57600080fd5b8035906020019184600183028401116401000000008311171561044057600080fd5b91908080601f016020809104026020016040519081016040528093929190818152602001838380828437600081840152601f19601f820116905080830192505050505050509192919290505050610906565b6040518082815260200191505060405180910390f35b610575600480360360608110156104be57600080fd5b8101908080359060200190929190803590602001906401000000008111156104e557600080fd5b8201836020820111156104f757600080fd5b8035906020019184600183028401116401000000008311171561051957600080fd5b91908080601f016020809104026020016040519081016040528093929190818152602001838380828437600081840152601f19601f82011690508083019250505050505050919291929080359060200190929190505050610986565b6040518082815260200191505060405180910390f35b610593610aee565b604051808273ffffffffffffffffffffffffffffffffffffffff1673ffffffffffffffffffffffffffffffffffffffff16815260200191505060405180910390f35b60026020528060005260406000206000915090508060000160009054906101000a900473ffffffffffffffffffffffffffffffffffffffff1690806001015490806002015490806003018054600181600116156101000203166002900480601f0160208091040260200160405190810160405280929190818152602001828054600181600116156101000203166002900480156106b35780601f10610688576101008083540402835291602001916106b3565b820191906000526020600020905b81548152906001019060200180831161069657829003601f168201915b5050505050905084565b6000809054906101000a900473ffffffffffffffffffffffffffffffffffffffff1673ffffffffffffffffffffffffffffffffffffffff163373ffffffffffffffffffffffffffffffffffffffff161461071657600080fd5b60016003600083815260200190815260200160002060006101000a81548160ff02191690831515021790555050565b60006003600083815260200190815260200160002060009054906101000a900460ff1615801561078b575060026000838152602001908152602001600020600201544211155b9050919050565b60036020528060005260406000206000915054906101000a900460ff1681565b6001602052806000526040600020600091509050806000018054600181600116156101000203166002900480601f01602080910402602001604051908101604052809291908181526020018280546001816001161561010002031660029004801561085e5780601f106108335761010080835404028352916020019161085e565b820191906000526020600020905b81548152906001019060200180831161084157829003601f168201915b505050505090806001018054600181600116156101000203166002900480601f0160208091040260200160405190810160405280929190818152602001828054600181600116156101000203166002900480156108fc5780601f106108d1576101008083540402835291602001916108fc565b820191906000526020600020905b8154815290600101906020018083116108df57829003601f168201915b5050505050905082565b60006004600081548092919060010191905055905060405180604001604052808481526020018381525060016000838152602001908152602001600020600082015181600001908051906020019061095f929190610b13565b50602082015181600101908051906020019061097c929190610b13565b5090505092915050565b60008060009054906101000a900473ffffffffffffffffffffffffffffffffffffffff1673ffffffffffffffffffffffffffffffffffffffff163373ffffffffffffffffffffffffffffffffffffffff16146109e157600080fd5b6005600081548092919060010191905055905060405180608001604052803373ffffffffffffffffffffffffffffffffffffffff1681526020018581526020018342018152602001848152506002600083815260200190815260200160002060008201518160000160006101000a81548173ffffffffffffffffffffffffffffffffffffffff021916908373ffffffffffffffffffffffffffffffffffffffff16021790555060208201518160010155604082015181600201556060820151816003019080519060200190610ab7929190610b13565b5090505060006003600083815260200190815260200160002060006101000a81548160ff0219169083151502179055509392505050565b6000809054906101000a900473ffffffffffffffffffffffffffffffffffffffff1681565b828054600181600116156101000203166002900490600052602060002090601f016020900481019282601f10610b5457805160ff1916838001178555610b82565b82800160010185558215610b82579182015b82811115610b81578251825591602001919060010190610b66565b5b509050610b8f9190610b93565b5090565b610bb591905b80821115610bb1576000816000905550600101610b99565b5090565b9056fea165627a7a7230582046d60f9929b807e600cc89bcd10f6c749128b66ae7429e9bd6a6da4bd58eeb2b0029",
  "source": "pragma solidity >=0.4.0;\r\n\r\n// TODO: 암호화/복호화\r\n\r\ncontract PKI {\r\n    \r\n    address public owner;\r\n    \r\n    // mapping (uint => Entity) public entities;\r\n    mapping (uint => Certificate) public registry;\r\n    mapping (uint => Signature) public signings;\r\n    mapping (uint => bool) public crl; // 인증서 폐기 목록 (Certificate Revocation Lists)\r\n    // uint nEntities = 0;\r\n    uint nCertificates = 0;\r\n    uint nSignatures = 0;\r\n    \r\n    // 엔티티(개체)\r\n    // struct Entity {\r\n    //     address identity;\r\n    //     uint level;\r\n    // }\r\n\r\n    // 인증서\r\n    struct Certificate {\r\n        string data;\r\n        string hash;\r\n    }\r\n\r\n    // 서명\r\n    struct Signature {\r\n        address owner;  // Owner of the signature\r\n        uint certId;  // Id of the cerficate\r\n        uint expiry;\r\n        string sign;\r\n    }\r\n    \r\n    // 사용자가 CA인지 판단해서 CA일 경우만 함수 실행\r\n    modifier onlyOwner { require(msg.sender == owner); _; }\r\n\r\n    constructor() public {\r\n        owner = msg.sender;\r\n    }\r\n    \r\n    // Add a trusted entity. Owner of the PKI only\r\n    // 신뢰가능한 엔티티 추가. PKI 소유자 전용\r\n    // function setCA(address trustedEntity) public returns (uint entityId) {\r\n    //     if (msg.sender == owner) { // PKI 소유자 전용\r\n    //         // 신뢰가능한 언티티 추가.\r\n    //         entityId = nEntities++;\r\n    //         entities[entityId] = Entity(trustedEntity, 1);\r\n    //     } else {\r\n    //         // 새로 추가하려는 엔티티가 entities 맵핑에 존재하는 경우에만 등록\r\n    //         bool found = false;\r\n    //         for (uint i=0; i < nEntities; i++) {\r\n    //             if (msg.sender == entities[i].identity) {\r\n    //                 entityId = nEntities++;\r\n    //                 found = true;\r\n    //                 entities[entityId] = Entity(trustedEntity, entities[i].level + 1);\r\n    //             }\r\n    //         }\r\n\r\n    //         // 만약 found가 false 면 즉시 함수 종료후 모든 상태변환을 되돌림.\r\n    //         require(found);\r\n    //     }\r\n    // }\r\n\r\n    // A non trusted entity publishes its certificate\r\n    // 신뢰 할 수 없는 엔티티가 자신의 인증서를 발행\r\n    function append(string memory data, string memory hash) public returns (uint certId) {\r\n        certId = nCertificates++;\r\n        registry[certId] = Certificate(data, hash);\r\n    }\r\n\r\n    // A trusted entity signs a certificate (expiry is time in seconds)\r\n    // 신뢰가능한 엔티티가 인증서에 서명 (expiry = 초 단위)\r\n    function sign(uint certId, string memory _sign, uint expiry) public onlyOwner returns (uint signId) {\r\n        // 서명을 signings 리스트에 추가\r\n        signId = nSignatures++;\r\n        signings[signId] = Signature(msg.sender, certId, now + expiry, _sign);\r\n        // 인증서 폐기 여부를 false 로 설정 (사용가능한 인증서)\r\n        crl[signId] = false;\r\n    }\r\n\r\n    // A trusted entity revokes a certificate\r\n    // 신뢰가능한 엔티티가 인증서 취소 (인증서 폐기)\r\n    function revoke(uint signId) public onlyOwner {\r\n        crl[signId] = true;\r\n    }\r\n\r\n    // 서명 유효성 체크\r\n    function isSignatureValid(uint signId) public view returns (bool state) {\r\n        return !crl[signId] && now <= signings[signId].expiry;\r\n    }\r\n}",
  "sourcePath": "C:/Users/kjs50/Desktop/VSCode/MessPKI/contracts/PKI.sol",
  "compiler": {
    "name": "solc",
    "version": "0.5.8+commit.23d335f2.Emscripten.clang"
  },
  "schemaVersion": "3.0.13",
  "updatedAt": "2019-10-30T08:25:01.391Z",
  "devdoc": {
    "methods": {}
  },
  "userdoc": {
    "methods": {}
  }
}